:020000040800F2
:1000000098040020AD010008B71200086B1000082A
:10001000B5120008B9020008A91400080000000089
:1000200000000000000000000000000005140008AF
:10003000BB02000800000000B91200080714000805
:10004000C7010008C7010008C7010008C701000870
:10005000C7010008C7010008C7010008C701000860
:10006000C7010008C7010008C7010008C701000850
:10007000C7010008C7010008C7010008C701000840
:10008000C7010008C7010008C70100080000000000
:10009000000000000000000000000000C701000890
:1000A000C7010008C7010008C7010008C701000810
:1000B000C7010008C7010008C7010008C701000800
:1000C000C7010008C7010008C7010008C7010008F0
:1000D000C7010008C7010008C701000800000000B0
:1000E000C7010008C7010008C701000800000000A0
:1000F000000000000000000000000000C701000830
:1001000000000000C7010008C7010008C70100087F
:1001100000000000000000000000000000000000DF
:10012000C7010008C7010008C7010008C70100088F
:10013000C7010008000000000000000000000000EF
:10014000000000000000000000000000C7010008DF
:10015000C7010008C7010008C7010008C70100085F
:10016000C7010008C70100080000000000000000EF
:10017000000000000000000000000000000000007F
:1001800000000000C701000800000000000000009F
:10019000C7010008C7010008DFF80CD000F07AF8AA
:1001A00000480047E91400089804002006488047EA
:1001B00006480047FEE7FEE7FEE7FEE7FEE7FEE74C
:1001C000FEE7FEE7FEE7FEE78D1400089901000850
:1001D0002DE9F05F0546002092469B46884606467C
:1001E000814640241BE0284641464746224600F00F
:1001F00041F853465A46C01A914110D31146184649
:10020000224600F028F82D1A67EB01084F462246D7
:100210000120002100F01FF817EB00094E41201EBD
:10022000A4F10104DFDC484631462A464346BDE8D6
:10023000F09FD2B201E000F8012B491EFBD27047BB
:100240000022F6E710B513460A4604461946FFF7A2
:10025000F0FF204610BD202A04DB203A00FA02F10C
:10026000002070479140C2F1200320FA03F31943A4
:1002700090407047202A04DB203A21FA02F0002146
:10028000704721FA02F3D040C2F1200291400843A6
:1002900019467047064C074D06E0E06840F0010340
:1002A00094E8070098471034AC42F6D3FFF778FF84
:1002B0007C1500089C150008FEE7704770B50446E1
:1002C00000F0DEF80546601C02D0044800780444C3
:1002D00000F0D6F8401BA042FAD370BD0C000020FD
:1002E0002DE9F84F00224FF0010803254FF00F0EC3
:1002F0000B6808FA02F42340A34271D14E68012E24
:1003000005D0022E03D0112E01D0122E15D18668F1
:10031000570005FA07FC26EA0C06D1F80CC00CFAC7
:1003200007FC4CEA060CC0F808C04668A6430C79E6
:10033000C4F30014944034434460C668570005FA7F
:1003400007FC8C6826EA0C06BC403443C4604C6849
:10035000022C01D0122C13D1D40800EB8404A34644
:10036000D4F8209054074FEAD46A0EFA0AF629EA24
:1003700006090E6906FA0AF646EA0906CBF8206075
:1003800004680E7924EA0C0406F00306BE402643F6
:1003900006604C68E40056D52E4C266846F480462C
:1003A0002660246822F0030604F4804400942A4C5A
:1003B0003444A446D4F808489607370F0EFA07F6D7
:1003C000B443264EB04201D1002615E0244EB0427F
:1003D00001D1012610E0234EB04202D102260BE0EB
:1003E00031E0214EB04201D1032605E01F4EB0425C
:1003F00001D1042600E00726BE402643CCF8086859
:100400001B4E34684F689C43FF0300D51C43346087
:10041000174E361D34684F689C43BF0300D51C43FC
:100420003460134E083634684F689C43FF0200D591
:100430001C4334600E4E0C3634684F689C43BF0238
:1004400000D51C433460521C102AFFF451AFBDE8A4
:10045000F88F0000443802400030014000000240A4
:100460000004024000080240000C0240001002405C
:10047000003C01400AB1816170470904FBE70000BC
:1004800001488068704700000C0000200248816825
:1004900002781144816070470C0000200B4810B5B1
:1004A000016841F400710160016841F480610160FC
:1004B000016841F480710160032000F061F80020C0
:1004C00000F006F800F024F8002010BD003C0240C7
:1004D00070B50D4D04464FF47A712878B1FBF0F0F9
:1004E0000A490968B1FBF0F000F0ABFD48B9102CE7
:1004F00007D200222146501E00F022F800206C6036
:1005000070BD012070BD00000C000020180000200C
:100510000A4808B5016841F480410160006800F4B0
:10052000804000900548001F016841F08051016043
:10053000006800F08050009008BD00004438024080
:10054000F0B40E4B1B680C46C3F30223C3F107053E
:10055000042D00D90425191D072901D2002300E02C
:10056000DB1E012606FA05F1491E214099409E40F6
:10057000761E16403143F0BC00F097BF0CED00E052
:10058000064900F0070208684FF6FF03184040EAEA
:100590000220034A10430860704700000CED00E0A1
:1005A0000000FA052DE9F0470E46050065D0DFF89A
:1005B0001481D8F80000F7B200F00F00B04207D263
:1005C00088F80070D8F8000000F00F00B04254D155
:1005D00028683D4C810712D5400703D5206840F4B8
:1005E000E05020602878000703D5206840F4604080
:1005F00020602068A96820F0F00008432060287877
:10060000C0072DD0304968680839012812D0022867
:1006100013D0032811D00968890700292DDA216831
:1006200021F0030101432160FFF72AFF814641F2D7
:10063000883A0EE009688903EFE709688901ECE769
:10064000FFF71EFFA0EB0901514502D90320BDE8C9
:10065000F0872068696800F00C00B0EB810FEFD1E3
:10066000D8F80010404601F00F01B14207D90770D9
:10067000006800F00F00B04201D00120E7E72878C1
:10068000400705D52068E96820F4E0500843206061
:100690002878000706D52068296920F4604040EAE0
:1006A000C100206000F018F82168084AC1F3031166
:1006B000515CC8400649086006480068FFF708FF1B
:1006C0000020C4E7003C0240083802406C150008D6
:1006D0001800002010000020154810B5006810F028
:1006E0000C02144813D01449042A0FD0082A0ED142
:1006F0000F4C241F2268236802F03F025B0207D5DB
:100700002068C0F38810A0FB010106E0084610BD78
:100710002168C1F38811A1FB00010023FFF758FDF8
:100720002168C1F30141491C4900B0FBF1F010BD43
:10073000083802400024F40040787D012DE9F84F8C
:10074000040076D02078DFF838A3CE4DC00749D01A
:10075000DAF800105046C1F38101012908D0006881
:10076000C0F3810002280AD1281D0068400206D586
:100770002868800336D560680028E2D032E06068DF
:10078000B0F5803F10D0B0F5A02F286810D020F42D
:1007900080302860286820F4802028606068A0B13C
:1007A000FFF76EFE06460CE0286840F48030F4E760
:1007B00040F480202860F7E7FFF762FE801B642882
:1007C00073D828688003F7D50CE0FFF759FE06467A
:1007D00005E000BFFFF754FE801B6428F0D82868AE
:1007E0008003F7D42078DFF8A08280074FF000095B
:1007F0003ED5DAF80010504611F00C0F09D0006811
:10080000C0F3810002280BD19D48001F0068400200
:1008100006D42868800715D5E068012809D111E0C1
:10082000E068B8B10120C8F80000FFF729FE0646CD
:1008300005E020E1FFF724FE801B0228C0D82868CD
:100840008007F7D52868216920F0F80040EAC10048
:1008500028600DE0C8F80090FFF712FE064604E09D
:10086000FFF70EFE801B02281FD828688007F7D4E8
:100870002078000722D5824E844861696C3671B1B8
:1008800001210160FFF7FCFD074604E0FFF7F8FDDA
:10089000C01B022809D830688007F7D50EE0C0F8E1
:1008A0000090FFF7EDFD074605E082E0FFF7E8FD69
:1008B000C01B02287DD830688007F7D42078400715
:1008C00068D5DFF8BCB100270BF1380BDBF800006E
:1008D000C0000BD4DBF8001041F08051CBF80010C1
:1008E000DBF80000012700F080500090684E30686F
:1008F000C00510D4306840F480703060FFF7C0FD50
:10090000009005E0FFF7BCFD0099401A022850D87E
:100910003068C005F6D55A4EA068683601280FD059
:100920000528306810D020F001003060306820F0D9
:1009300004003060A068B8B1FFF7A2FD00900FE09E
:10094000306840F00100F4E740F004003060F7E761
:10095000FFF796FD0099411A41F28830814266D82E
:1009600030688007F4D50EE0FFF78AFD009007E0BD
:10097000FFF786FD0099411A41F28830814256D82E
:1009800030688007F4D42FB1DBF8001021F08051DB
:10099000CBF80010A069D0B3DAF800205146C2F3BA
:1009A0008102022A4AD00228484607D0C8F86000CF
:1009B00000E03CE0FFF764FD04463BE04746C8F832
:1009C0006000FFF75DFD064605E000BFFFF758FD3C
:1009D000801B02282BD828688001F7D4D4E90701AE
:1009E0000843A16A2B4A490802EB0141626A41EAC5
:1009F0008211084394F82C1040EA01612048001F3E
:100A0000016001203866FFF73BFD044605E034E055
:100A1000FFF736FD001B022809D828688001F7D5AA
:100A20002BE000BFFFF72CFD001B022802D903209A
:100A3000BDE8F88F28688001F4D41EE00128F7D0C3
:100A40000868E26900F48001914214D1226A00F042
:100A50003F0191420FD147F6C071626A0140914255
:100A600009D1A26A00F44031914204D1E16A00F058
:100A70007060884201D00120DAE70020D8E700004A
:100A8000083802400038024000004742800E4742CA
:100A9000007000400000FFFF90F85100704770B5F3
:100AA000040005D00025A56294F8510010B106E0BD
:100AB000012070BD84F85050204600F031F802202B
:100AC00084F851002068016821F040010160D4E9F8
:100AD00001010843D4E90312114308436169084343
:100AE000218B01F400710843E1690843216A08433E
:100AF000A16A084321680860A069042101EA104046
:100B0000616A0843216848602068C16921F4006176
:100B1000C1616565012084F85100002070BD0000AE
:100B200070B586B0044614216846FFF789FB1D495D
:100B30002068884234D11C480024016841F40041F7
:100B40000160006800F40040059017481038016803
:100B500041F002010160016801F0020105910168A4
:100B600041F0040101600068022500F004000590D6
:100B70004FF48050CDE90005032602940720CDE90B
:100B8000036069460948FFF7ABFBF002CDE90005B9
:100B900002940620CDE9036069460548FFF7A0FBF3
:100BA00006B070BD003C00404038024000040240E6
:100BB000000802402DE9F84F044640680025984699
:100BC00016460F464FF0040BB0F5827F01D1A068A6
:100BD00088B194F85000012818D0012084F8500002
:100BE000FFF74EFC814694F851004FF0000A0128AF
:100BF0000ED002257DE084F851B013460A46204607
:100C0000CDF8008000F02CF9BDE8F88F0220FBE75A
:100C1000002F6DD0002E6BD084F851B0C4F854A0D2
:100C2000A763A687E687C4F830A0A4F834A0A4F888
:100C300036A0C4F840A0C4F844A0A068B0F5004FA6
:100C400004D12068016821F48041016020680168B6
:100C5000490603D4016841F040010160E068D8B161
:100C600039E020688168C90709D0007BA16B087052
:100C7000A06B401CA063E08F401EE0870CE0FFF7F4
:100C8000FFFBA0EB0901414503D3B8F1FF3F03D0BF
:100C900036E0B8F1000F33D0E08F0028E1D11DE03D
:100CA00020688168C90709D0C068A16B0880A06B63
:100CB000801CA063E08F401EE0870CE0FFF7E0FBA4
:100CC000A0EB0901414503D3B8F1FF3F03D017E082
:100CD000B8F1000F14D0E08F0028E1D14A46414618
:100CE000204600F0EAFA08B120206065606D00B18E
:100CF0000125012084F8510084F850A0284683E79C
:100D00000325F6E72DE9F84F044690F85000002738
:100D10001D461646894601280DD04FF0010B84F878
:100D200050B0FFF7ADFB804694F85100BA46012859
:100D300004D002278EE00220BDE8F88FB9F1000F41
:100D40007DD0002E7BD0032084F85100C4F854A03D
:100D5000C4F83090A686E686C4F838A0A4F83CA073
:100D6000A4F83EA0C4F844A0C4F840A0A068B0F520
:100D7000004F04D12068016841F48041016020687F
:100D80000168490603D4016841F040010160E06850
:100D9000B0F5006F606803D030B3012E24D040E07E
:100DA00008B1012E1CD1206B21680088C86006E0C4
:100DB00020688168890709D5216B0988C160206B8B
:100DC000801C2063E08E401EE08609E0FFF758FBA0
:100DD000A0EB0800A84202D3681C01D031E07DB32B
:100DE000E08E0028E4D11FE0206B216800780873B2
:100DF00006E020688168890709D5216B09780173AD
:100E0000206B401C2063E08E401EE08609E0FFF767
:100E100037FBA0EB0800A84202D3681C01D010E009
:100E200075B1E08E0028E4D142462946204600F004
:100E300073FA08B120206065A06820B107E008E0DF
:100E4000FFE7032706E02068C16880680090606DB6
:100E500000B1012784F851B084F850A038466BE700
:100E60002DE9F84F044690F8500000270A9E1D46D1
:100E700092468B464FF0010901280ED0012084F8DC
:100E80005000FFF7FDFA804694F851006168012890
:100E90000CD0B1F5827F07D102E00220BDE8F88FC7
:100EA000A16809B9042801D00227C2E0BBF1000FF4
:100EB00027D0BAF1000F24D01DB394F851000428B4
:100EC00002D0052084F8510000206065C4F838A0E5
:100ED000E587A587C4F830B0E586A5862064606400
:100EE00020680168490603D4016841F040010160AF
:100EF000E068B0F5006F606805D0E8B3012D46D01A
:100F00007FE0012795E008B1012D39D1206B2168E0
:100F10000088C860206B801C2063E08E401EE08645
:100F20002EE02068816889070FD5E18E69B1B9F19B
:100F3000010F0AD1216B0988C160206B801C2063DE
:100F4000E08E401EE0864FF0000920688168C907E6
:100F50000CD0E18F51B1C068A16B0880A06B801CE0
:100F6000A063E08F401EE0874FF00109FFF788FA89
:100F7000A0EB0800B04200E009E001D3701C50D1A2
:100F8000E08E0028CDD1E08F0028CAD13FE0206B51
:100F9000216800780873206B401C2063E08E401E9F
:100FA000E0862EE02068816889070FD5E18E69B15F
:100FB000B9F1010F0AD1216B09780173206B401C34
:100FC0002063E08E401EE0864FF0000920688168B3
:100FD000C9070CD0E18F51B1C068A16B0870A06B3C
:100FE000401CA063E08F401EE0874FF00109FFF72F
:100FF00047FAA0EB0800B04202D3701C01D010E009
:101000007EB1E08E0028CDD1E08F0028CAD14246C3
:101010003146204600F080F928B101272020606584
:1010200007E0032705E0A06818B92068C168806858
:101030000090012084F85100002084F850003846C8
:101040002CE710B5401EB0F1807F01D3012010BD08
:101050004FF0E02460610F21601700F026FA0020B5
:10106000A06107202061002010BDFEE77FB50124AC
:101070000D4606468DF8044002AB224601A90094B5
:1010800000F016F89DF8080000F0F80005B1401CCB
:101090008DF80C0081208DF8040003AB012201A91A
:1010A0003046009400F078F80A20FFF707F97FBD7A
:1010B0002DE9F0470E461546044681889846DDF82E
:1010C000209000680022FFF7D5F94FF4FA673B46FD
:1010D0002A4631462069FFF715FE2069FFF7DCFC40
:1010E0000128FAD13B464A4641462069FFF762FD96
:1010F0002069FFF7D1FC0128FAD1A1882068BDE85A
:10110000F0470122FFF7B6B910B50446818980681F
:101110000022FFF7AFF90120FFF7D0F8A1890122E3
:10112000A068FFF7A7F9BDE810406420FFF7C6B834
:10113000FEB50D4606460021FFF798FF0A20FFF78F
:10114000BDF81E2001248DF80400124B224601A98F
:1011500030460094FFF7ACFF0A20FFF7AFF80D48C8
:1011600002AB012201789E2065F31F118DF8081053
:101170008DF8040001A93046009400F00DF8052018
:10118000FFF79CF801213046FFF770FF0A20FFF7B8
:1011900095F8FEBD080000202DE9F0470E461546E3
:1011A000044681889846DDF8209000680022FFF709
:1011B00061F94FF4FA673B462A4631462069FFF74A
:1011C000A1FD2069FFF768FC0128FAD13B464A4699
:1011D00041462069FFF796FD2069FFF75DFC012875
:1011E000FAD1A1882068BDE8F0470122FFF742B993
:1011F00070B586B014216846FFF722F81E48002417
:10120000016841F080010160016801F080010591F1
:10121000016841F010010160016801F010010591C1
:10122000016841F002010160016801F002010591CD
:10123000016841F001010160016801F001010591BF
:10124000016841F00401016000680C4E00F00400E8
:101250004FF440450590012229463046FFF70AF930
:1012600001200095CDE90104694630460394FFF75B
:1012700037F806B070BD0000303802400010024060
:101280000B480A494FF4007201604FF482714160CB
:1012900000218160C1600161C0E90512C161016284
:1012A000416281620A21C162FFF7F9BB003C004044
:1012B0001C000020FEE770477047F8B50446406800
:1012C0004FF48273984221D1A0684FF48065B0F545
:1012D000004F01D0A8420AD12068066826F04006D7
:1012E00006606068984211D1A068A8420ED00092B2
:1012F0000B4600228021204600F03AF8002804D056
:10130000606D40F0200060650320F8BD00920B4640
:1013100000220121EFE7000038B504461248134BC4
:101320000068B0FBF3F04FF47A73584300906068A4
:10133000B0F5827F0DD10B4600920022802120461D
:1013400000F016F870B1606D40F020006065032079
:1013500038BD009830B1401E009020688068C043BE
:101360000006F6D5002038BD1800002000366E01BA
:101370002DE9F0411D4617460E460446DDF818805B
:1013800008E0681C06D0FFF77BF8A0EB0800A84235
:101390000BD255B12068806836EA000030D00020BA
:1013A000B842EED10020BDE8F0812068416821F00C
:1013B000E00141606068B0F5827F0BD1A068B0F5B4
:1013C000004F02D0B0F5806F04D12068016821F091
:1013D00040010160A06AB0F5005F09D12068016892
:1013E00021F4005101602068016841F4005101605E
:1013F000012084F85100002084F850000320D2E737
:101400000120CDE77047FFF741B8000030B593B039
:1014100030216846FEF714FF14210CA8FEF710FFD8
:1014200018480025016841F080510160006800F013
:10143000805011901448016841F4404101600068F7
:10144000022400F4404011900120039010200490E9
:10145000009406940820CDE907506420CDE90904E2
:1014600004200B906846FFF769F90CA90F2081E86A
:101470003100E002CDE90F0503210CA8FFF792F837
:1014800013B030BD4038024000700040054801688C
:1014900041F47001016003494FF000608039086039
:1014A0007047000088ED00E0FEE70907090E0028FC
:1014B00004DB00F1E02080F80014704700F00F001A
:1014C00000F1E02080F8141D704702E008C8121FE8
:1014D00008C1002AFAD170477047002001E001C11D
:1014E000121F002AFBD1704708B5FEF7D7FFFFF7A0
:1014F0008DFFFFF77DFEFFF7C3FE19494FF4004251
:1015000001F1580001250161164901608280816066
:101510005110818140F2B11141610721017608210A
:1015200041768576FFF7F0FD6420FEF7C7FE0C4894
:1015300008215830FFF7FCFD0B4C1E20631C207067
:1015400007480122591E58300095FFF7B1FD40F6BB
:10155000B8356068401C60602846FEF7AFFEF8E7CB
:101560001C000020001002400000002000000000CD
:101570000000000001020304060708099C1500088A
:10158000000000201C000000CA140008B815000864
:101590001C0000207C040000DA1400080000000099
:1015A0000000000001000000010000001000000029
:0815B000000000000024F4001B
:040000050800019955
:00000001FF
